{
  "contractName": "EternalProof",
  "abi": [
    {
      "constant": true,
      "inputs": [],
      "name": "testNumber",
      "outputs": [
        {
          "name": "",
          "type": "uint256"
        }
      ],
      "payable": false,
      "stateMutability": "view",
      "type": "function"
    },
    {
      "constant": true,
      "inputs": [
        {
          "name": "",
          "type": "address"
        }
      ],
      "name": "imagesAsBytes",
      "outputs": [
        {
          "name": "",
          "type": "bytes32"
        }
      ],
      "payable": false,
      "stateMutability": "view",
      "type": "function"
    },
    {
      "constant": true,
      "inputs": [
        {
          "name": "",
          "type": "uint256"
        }
      ],
      "name": "imageStrings",
      "outputs": [
        {
          "name": "",
          "type": "string"
        }
      ],
      "payable": false,
      "stateMutability": "view",
      "type": "function"
    },
    {
      "constant": true,
      "inputs": [
        {
          "name": "",
          "type": "uint256"
        }
      ],
      "name": "imagesAsNumbers",
      "outputs": [
        {
          "name": "",
          "type": "uint256"
        }
      ],
      "payable": false,
      "stateMutability": "view",
      "type": "function"
    },
    {
      "constant": true,
      "inputs": [
        {
          "name": "",
          "type": "uint256"
        }
      ],
      "name": "imageList",
      "outputs": [
        {
          "name": "",
          "type": "bytes32"
        }
      ],
      "payable": false,
      "stateMutability": "view",
      "type": "function"
    },
    {
      "constant": false,
      "inputs": [
        {
          "name": "imageHash",
          "type": "bytes32"
        }
      ],
      "name": "writeImageAsBytes",
      "outputs": [],
      "payable": false,
      "stateMutability": "nonpayable",
      "type": "function"
    },
    {
      "constant": true,
      "inputs": [
        {
          "name": "owner",
          "type": "address"
        }
      ],
      "name": "getImageAsBytes",
      "outputs": [
        {
          "name": "",
          "type": "bytes32"
        }
      ],
      "payable": false,
      "stateMutability": "view",
      "type": "function"
    },
    {
      "constant": false,
      "inputs": [
        {
          "name": "imageHash",
          "type": "string"
        }
      ],
      "name": "writeStringImage",
      "outputs": [],
      "payable": false,
      "stateMutability": "nonpayable",
      "type": "function"
    },
    {
      "constant": false,
      "inputs": [
        {
          "name": "imageAsNumber",
          "type": "uint256"
        }
      ],
      "name": "writeNumber",
      "outputs": [],
      "payable": false,
      "stateMutability": "nonpayable",
      "type": "function"
    },
    {
      "constant": true,
      "inputs": [],
      "name": "getImagesAsNumbers",
      "outputs": [
        {
          "name": "",
          "type": "uint256[]"
        }
      ],
      "payable": false,
      "stateMutability": "view",
      "type": "function"
    },
    {
      "constant": true,
      "inputs": [],
      "name": "getTester",
      "outputs": [
        {
          "name": "",
          "type": "uint256"
        }
      ],
      "payable": false,
      "stateMutability": "view",
      "type": "function"
    },
    {
      "constant": false,
      "inputs": [
        {
          "name": "num",
          "type": "uint256"
        }
      ],
      "name": "writeTester",
      "outputs": [],
      "payable": false,
      "stateMutability": "nonpayable",
      "type": "function"
    },
    {
      "constant": true,
      "inputs": [],
      "name": "getImages",
      "outputs": [
        {
          "name": "",
          "type": "bytes32[]"
        }
      ],
      "payable": false,
      "stateMutability": "view",
      "type": "function"
    },
    {
      "constant": true,
      "inputs": [],
      "name": "getImageByOwner",
      "outputs": [
        {
          "name": "",
          "type": "string"
        }
      ],
      "payable": false,
      "stateMutability": "view",
      "type": "function"
    }
  ],
  "bytecode": "0x608060405234801561001057600080fd5b5061099f806100206000396000f3006080604052600436106100d0576000357c0100000000000000000000000000000000000000000000000000000000900463ffffffff1680630d1972f3146100d557806311498334146101005780631a843e991461016c5780631b74f40614610199578063323ca7cb1461020557806347911ec8146102645780635637a79c1461030a5780636dd3692f1461033757806386cbbcf31461036257806396e87d19146103a3578063be9af72a146103ec578063d085ce191461041d578063e2a3864714610486578063f178ea87146104e5575b600080fd5b3480156100e157600080fd5b506100ea610575565b6040518082815260200191505060405180910390f35b34801561010c57600080fd5b5061011561057b565b6040518080602001828103825283818151815260200191508051906020019060200280838360005b8381101561015857808201518184015260208101905061013d565b505050509050019250505060405180910390f35b34801561017857600080fd5b50610197600480360381019080803590602001909291905050506105d7565b005b3480156101a557600080fd5b506101ae610619565b6040518080602001828103825283818151815260200191508051906020019060200280838360005b838110156101f15780820151818401526020810190506101d6565b505050509050019250505060405180910390f35b34801561021157600080fd5b50610246600480360381019080803573ffffffffffffffffffffffffffffffffffffffff169060200190929190505050610671565b60405180826000191660001916815260200191505060405180910390f35b34801561027057600080fd5b5061028f60048036038101908080359060200190929190505050610689565b6040518080602001828103825283818151815260200191508051906020019080838360005b838110156102cf5780820151818401526020810190506102b4565b50505050905090810190601f1680156102fc5780820380516001836020036101000a031916815260200191505b509250505060405180910390f35b34801561031657600080fd5b5061033560048036038101908080359060200190929190505050610744565b005b34801561034357600080fd5b5061034c610773565b6040518082815260200191505060405180910390f35b34801561036e57600080fd5b5061038d6004803603810190808035906020019092919050505061077d565b6040518082815260200191505060405180910390f35b3480156103af57600080fd5b506103ce600480360381019080803590602001909291905050506107a0565b60405180826000191660001916815260200191505060405180910390f35b3480156103f857600080fd5b5061041b60048036038101908080356000191690602001909291905050506107c3565b005b34801561042957600080fd5b50610484600480360381019080803590602001908201803590602001908080601f016020809104026020016040519081016040528093929190818152602001838380828437820191505050505050919291929050505061083f565b005b34801561049257600080fd5b506104c7600480360381019080803573ffffffffffffffffffffffffffffffffffffffff169060200190929190505050610881565b60405180826000191660001916815260200191505060405180910390f35b3480156104f157600080fd5b506104fa6108c9565b6040518080602001828103825283818151815260200191508051906020019080838360005b8381101561053a57808201518184015260208101905061051f565b50505050905090810190601f1680156105675780820380516001836020036101000a031916815260200191505b509250505060405180910390f35b60045481565b606060018054806020026020016040519081016040528092919081815260200182805480156105cd57602002820191906000526020600020905b815460001916815260200190600101908083116105b5575b5050505050905090565b60056004819055506005600481905550600560048190555060056004819055506005600481905550600560048190555060056004819055508060048190555050565b6060600380548060200260200160405190810160405280929190818152602001828054801561066757602002820191906000526020600020905b815481526020019060010190808311610653575b5050505050905090565b60006020528060005260406000206000915090505481565b60028181548110151561069857fe5b906000526020600020016000915090508054600181600116156101000203166002900480601f01602080910402602001604051908101604052809291908181526020018280546001816001161561010002031660029004801561073c5780601f106107115761010080835404028352916020019161073c565b820191906000526020600020905b81548152906001019060200180831161071f57829003601f168201915b505050505081565b600381908060018154018082558091505090600182039060005260206000200160009091929091909150555050565b6000600454905090565b60038181548110151561078c57fe5b906000526020600020016000915090505481565b6001818154811015156107af57fe5b906000526020600020016000915090505481565b6001819080600181540180825580915050906001820390600052602060002001600090919290919091509060001916905550806000803373ffffffffffffffffffffffffffffffffffffffff1673ffffffffffffffffffffffffffffffffffffffff168152602001908152602001600020816000191690555050565b600281908060018154018082558091505090600182039060005260206000200160009091929091909150908051906020019061087c9291906108ce565b505050565b60008060008373ffffffffffffffffffffffffffffffffffffffff1673ffffffffffffffffffffffffffffffffffffffff168152602001908152602001600020549050919050565b606090565b828054600181600116156101000203166002900490600052602060002090601f016020900481019282601f1061090f57805160ff191683800117855561093d565b8280016001018555821561093d579182015b8281111561093c578251825591602001919060010190610921565b5b50905061094a919061094e565b5090565b61097091905b8082111561096c576000816000905550600101610954565b5090565b905600a165627a7a72305820274d6879000860f16a0f3e2cfb293650e418d9fc4b0eed556eb5fa478d2bcfac0029",
  "source": "pragma solidity ^0.4.18;\n//pragma experimental ABIEncoderV2;\n\ncontract EternalProof{\n\n    // add a struct to allow multiple images per address\n\n    mapping (address => bytes32) public imagesAsBytes;\n    bytes32[] public imageList;\n    string[] public imageStrings;\n    uint256[] public imagesAsNumbers;\n    uint public testNumber;\n\n    function writeImageAsBytes(bytes32 imageHash) public {\n        //images[msg.sender] = imageHash;\n        imageList.push(imageHash);\n        imagesAsBytes[msg.sender] = imageHash;\n\n    }\n\n    function getImageAsBytes(address owner) view public returns (bytes32) {\n        return imagesAsBytes[owner];\n    }\n\n\n    function writeStringImage(string imageHash) public {\n        imageStrings.push(imageHash);\n\n    }\n\n    function writeNumber(uint256 imageAsNumber) public {\n        imagesAsNumbers.push(imageAsNumber);\n    }\n\n\n\n/**\n    function getImageByOwner(address owner) view public returns (bytes32) {\n        return images[owner];\n    }\n    **/\n\n    function getImagesAsNumbers() view public returns (uint256[]){\n      return imagesAsNumbers;\n    }\n\n    function getTester() view public returns (uint) {\n      return testNumber;\n    }\n\n    function writeTester(uint num) public {\n        testNumber = 5;\n        testNumber = 5;\n        testNumber = 5;\n        testNumber = 5;\n        testNumber = 5;\n        testNumber = 5;\n        testNumber = 5;\n        testNumber = num;\n    }\n\n    function getImages() view public returns (bytes32[]) {\n        return imageList;\n    }\n\n    function getImageByOwner() view public returns (string){\n\n    }\n\n}\n",
  "sourcePath": "/Users/alex/workspace/webpack/contracts/EternalProof.sol",
  "compiler": {
    "name": "solc",
    "version": "0.4.24+commit.e67f0147.Emscripten.clang"
  },
  "schemaVersion": "2.0.1",
  "updatedAt": "2018-08-02T14:26:53.310Z"
}